{
  "_format": "hh-sol-artifact-1",
  "contractName": "ScepticAudit",
  "sourceName": "contracts/ScepticAudit.sol",
  "abi": [
    {
      "inputs": [
        {
          "internalType": "address",
          "name": "_token",
          "type": "address"
        },
        {
          "internalType": "uint256",
          "name": "_minStakeForVoting",
          "type": "uint256"
        },
        {
          "internalType": "uint256",
          "name": "_validationThreshold",
          "type": "uint256"
        }
      ],
      "stateMutability": "nonpayable",
      "type": "constructor"
    },
    {
      "anonymous": false,
      "inputs": [
        {
          "indexed": false,
          "internalType": "string",
          "name": "auditId",
          "type": "string"
        },
        {
          "indexed": false,
          "internalType": "string",
          "name": "dataHash",
          "type": "string"
        },
        {
          "indexed": false,
          "internalType": "uint256",
          "name": "riskScore",
          "type": "uint256"
        },
        {
          "indexed": false,
          "internalType": "address",
          "name": "auditor",
          "type": "address"
        }
      ],
      "name": "AuditStored",
      "type": "event"
    },
    {
      "anonymous": false,
      "inputs": [
        {
          "indexed": false,
          "internalType": "address",
          "name": "auditor",
          "type": "address"
        }
      ],
      "name": "AuditorRegistered",
      "type": "event"
    },
    {
      "anonymous": false,
      "inputs": [
        {
          "indexed": false,
          "internalType": "address",
          "name": "auditor",
          "type": "address"
        }
      ],
      "name": "AuditorRemoved",
      "type": "event"
    },
    {
      "anonymous": false,
      "inputs": [
        {
          "indexed": true,
          "internalType": "address",
          "name": "previousOwner",
          "type": "address"
        },
        {
          "indexed": true,
          "internalType": "address",
          "name": "newOwner",
          "type": "address"
        }
      ],
      "name": "OwnershipTransferred",
      "type": "event"
    },
    {
      "anonymous": false,
      "inputs": [
        {
          "indexed": false,
          "internalType": "string",
          "name": "auditId",
          "type": "string"
        },
        {
          "indexed": false,
          "internalType": "address",
          "name": "voter",
          "type": "address"
        },
        {
          "indexed": false,
          "internalType": "bool",
          "name": "approve",
          "type": "bool"
        },
        {
          "indexed": false,
          "internalType": "uint256",
          "name": "stake",
          "type": "uint256"
        }
      ],
      "name": "VoteCast",
      "type": "event"
    },
    {
      "inputs": [
        {
          "internalType": "string",
          "name": "",
          "type": "string"
        }
      ],
      "name": "approveVotes",
      "outputs": [
        {
          "internalType": "uint256",
          "name": "",
          "type": "uint256"
        }
      ],
      "stateMutability": "view",
      "type": "function"
    },
    {
      "inputs": [
        {
          "internalType": "string",
          "name": "",
          "type": "string"
        }
      ],
      "name": "auditResults",
      "outputs": [
        {
          "internalType": "string",
          "name": "dataHash",
          "type": "string"
        },
        {
          "internalType": "uint256",
          "name": "riskScore",
          "type": "uint256"
        },
        {
          "internalType": "uint256",
          "name": "timestamp",
          "type": "uint256"
        },
        {
          "internalType": "address",
          "name": "auditor",
          "type": "address"
        },
        {
          "internalType": "bool",
          "name": "validated",
          "type": "bool"
        }
      ],
      "stateMutability": "view",
      "type": "function"
    },
    {
      "inputs": [
        {
          "internalType": "string",
          "name": "auditId",
          "type": "string"
        }
      ],
      "name": "getAuditResult",
      "outputs": [
        {
          "internalType": "string",
          "name": "dataHash",
          "type": "string"
        },
        {
          "internalType": "uint256",
          "name": "riskScore",
          "type": "uint256"
        },
        {
          "internalType": "uint256",
          "name": "timestamp",
          "type": "uint256"
        },
        {
          "internalType": "address",
          "name": "auditor",
          "type": "address"
        }
      ],
      "stateMutability": "view",
      "type": "function"
    },
    {
      "inputs": [
        {
          "internalType": "string",
          "name": "auditId",
          "type": "string"
        }
      ],
      "name": "getVoters",
      "outputs": [
        {
          "internalType": "address[]",
          "name": "voters",
          "type": "address[]"
        },
        {
          "internalType": "bool[]",
          "name": "approvals",
          "type": "bool[]"
        },
        {
          "internalType": "uint256[]",
          "name": "stakes",
          "type": "uint256[]"
        }
      ],
      "stateMutability": "view",
      "type": "function"
    },
    {
      "inputs": [
        {
          "internalType": "string",
          "name": "auditId",
          "type": "string"
        }
      ],
      "name": "getVotes",
      "outputs": [
        {
          "internalType": "uint256",
          "name": "approve",
          "type": "uint256"
        },
        {
          "internalType": "uint256",
          "name": "reject",
          "type": "uint256"
        }
      ],
      "stateMutability": "view",
      "type": "function"
    },
    {
      "inputs": [],
      "name": "minStakeForVoting",
      "outputs": [
        {
          "internalType": "uint256",
          "name": "",
          "type": "uint256"
        }
      ],
      "stateMutability": "view",
      "type": "function"
    },
    {
      "inputs": [],
      "name": "owner",
      "outputs": [
        {
          "internalType": "address",
          "name": "",
          "type": "address"
        }
      ],
      "stateMutability": "view",
      "type": "function"
    },
    {
      "inputs": [
        {
          "internalType": "address",
          "name": "token",
          "type": "address"
        },
        {
          "internalType": "uint256",
          "name": "amount",
          "type": "uint256"
        }
      ],
      "name": "recoverTokens",
      "outputs": [],
      "stateMutability": "nonpayable",
      "type": "function"
    },
    {
      "inputs": [
        {
          "internalType": "address",
          "name": "auditor",
          "type": "address"
        }
      ],
      "name": "registerAuditor",
      "outputs": [],
      "stateMutability": "nonpayable",
      "type": "function"
    },
    {
      "inputs": [
        {
          "internalType": "address",
          "name": "",
          "type": "address"
        }
      ],
      "name": "registeredAuditors",
      "outputs": [
        {
          "internalType": "bool",
          "name": "",
          "type": "bool"
        }
      ],
      "stateMutability": "view",
      "type": "function"
    },
    {
      "inputs": [
        {
          "internalType": "string",
          "name": "",
          "type": "string"
        }
      ],
      "name": "rejectVotes",
      "outputs": [
        {
          "internalType": "uint256",
          "name": "",
          "type": "uint256"
        }
      ],
      "stateMutability": "view",
      "type": "function"
    },
    {
      "inputs": [
        {
          "internalType": "address",
          "name": "auditor",
          "type": "address"
        }
      ],
      "name": "removeAuditor",
      "outputs": [],
      "stateMutability": "nonpayable",
      "type": "function"
    },
    {
      "inputs": [],
      "name": "renounceOwnership",
      "outputs": [],
      "stateMutability": "nonpayable",
      "type": "function"
    },
    {
      "inputs": [],
      "name": "scepticToken",
      "outputs": [
        {
          "internalType": "contract ScepticToken",
          "name": "",
          "type": "address"
        }
      ],
      "stateMutability": "view",
      "type": "function"
    },
    {
      "inputs": [
        {
          "internalType": "uint256",
          "name": "minStake",
          "type": "uint256"
        }
      ],
      "name": "setMinStakeForVoting",
      "outputs": [],
      "stateMutability": "nonpayable",
      "type": "function"
    },
    {
      "inputs": [
        {
          "internalType": "string",
          "name": "auditId",
          "type": "string"
        },
        {
          "internalType": "string",
          "name": "dataHash",
          "type": "string"
        },
        {
          "internalType": "uint256",
          "name": "riskScore",
          "type": "uint256"
        }
      ],
      "name": "storeAuditResult",
      "outputs": [
        {
          "internalType": "bool",
          "name": "",
          "type": "bool"
        }
      ],
      "stateMutability": "nonpayable",
      "type": "function"
    },
    {
      "inputs": [
        {
          "internalType": "address",
          "name": "newOwner",
          "type": "address"
        }
      ],
      "name": "transferOwnership",
      "outputs": [],
      "stateMutability": "nonpayable",
      "type": "function"
    },
    {
      "inputs": [],
      "name": "validationThreshold",
      "outputs": [
        {
          "internalType": "uint256",
          "name": "",
          "type": "uint256"
        }
      ],
      "stateMutability": "view",
      "type": "function"
    },
    {
      "inputs": [
        {
          "internalType": "string",
          "name": "auditId",
          "type": "string"
        },
        {
          "internalType": "bool",
          "name": "approve",
          "type": "bool"
        },
        {
          "internalType": "uint256",
          "name": "stake",
          "type": "uint256"
        }
      ],
      "name": "voteOnAudit",
      "outputs": [
        {
          "internalType": "bool",
          "name": "",
          "type": "bool"
        }
      ],
      "stateMutability": "nonpayable",
      "type": "function"
    },
    {
      "inputs": [
        {
          "internalType": "string",
          "name": "",
          "type": "string"
        },
        {
          "internalType": "uint256",
          "name": "",
          "type": "uint256"
        }
      ],
      "name": "votersList",
      "outputs": [
        {
          "internalType": "address",
          "name": "",
          "type": "address"
        }
      ],
      "stateMutability": "view",
      "type": "function"
    },
    {
      "inputs": [
        {
          "internalType": "string",
          "name": "",
          "type": "string"
        },
        {
          "internalType": "address",
          "name": "",
          "type": "address"
        }
      ],
      "name": "votes",
      "outputs": [
        {
          "internalType": "bool",
          "name": "exists",
          "type": "bool"
        },
        {
          "internalType": "bool",
          "name": "approve",
          "type": "bool"
        },
        {
          "internalType": "uint256",
          "name": "stake",
          "type": "uint256"
        }
      ],
      "stateMutability": "view",
      "type": "function"
    }
  ],
  "bytecode": "0x608060405234801561001057600080fd5b5060405161300f38038061300f83398181016040528101906100329190610211565b61004e6100436100ac60201b60201c565b6100b460201b60201c565b6001808190555082600260006101000a81548173ffffffffffffffffffffffffffffffffffffffff021916908373ffffffffffffffffffffffffffffffffffffffff1602179055508160038190555080600481905550505050610264565b600033905090565b60008060009054906101000a900473ffffffffffffffffffffffffffffffffffffffff169050816000806101000a81548173ffffffffffffffffffffffffffffffffffffffff021916908373ffffffffffffffffffffffffffffffffffffffff1602179055508173ffffffffffffffffffffffffffffffffffffffff168173ffffffffffffffffffffffffffffffffffffffff167f8be0079c531659141344cd1fd0a4f28419497f9722a3daafe3b4186f6b6457e060405160405180910390a35050565b600080fd5b600073ffffffffffffffffffffffffffffffffffffffff82169050919050565b60006101a88261017d565b9050919050565b6101b88161019d565b81146101c357600080fd5b50565b6000815190506101d5816101af565b92915050565b6000819050919050565b6101ee816101db565b81146101f957600080fd5b50565b60008151905061020b816101e5565b92915050565b60008060006060848603121561022a57610229610178565b5b6000610238868287016101c6565b9350506020610249868287016101fc565b925050604061025a868287016101fc565b9150509250925092565b612d9c806102736000396000f3fe608060405234801561001057600080fd5b50600436106101375760003560e01c8063878af335116100b8578063d86411bd1161007c578063d86411bd14610394578063dd512b08146103c4578063df9a4f56146103f4578063e6116cfd14610410578063eeb6babf1461042c578063f2fde38b1461044a57610137565b8063878af335146102c25780638da5cb5b146102f4578063a28c7cc014610312578063c2d6677614610342578063c6fbcb9f1461036057610137565b80635c7ca7f6116100ff5780635c7ca7f6146101f55780636b92d6c514610225578063715018a6146102575780637d088f0c14610261578063805265e51461029157610137565b806305c5e2af1461013c578063069c9fae1461015a57806311bcdfd21461017657806343a82dcf146101a9578063531e0dbd146101c5575b600080fd5b610144610466565b6040516101519190611906565b60405180910390f35b610174600480360381019061016f91906119a9565b61048c565b005b610190600480360381019061018b9190611a4e565b61051e565b6040516101a09493929190611b49565b60405180910390f35b6101c360048036038101906101be9190611b95565b610690565b005b6101df60048036038101906101da9190611bc2565b6106a2565b6040516101ec9190611c0a565b60405180910390f35b61020f600480360381019061020a9190611d55565b6106c2565b60405161021c9190611db1565b60405180910390f35b61023f600480360381019061023a9190611dcc565b610726565b60405161024e93929190611e28565b60405180910390f35b61025f61078d565b005b61027b60048036038101906102769190611e5f565b6107a1565b6040516102889190611ea8565b60405180910390f35b6102ab60048036038101906102a69190611a4e565b6107cf565b6040516102b9929190611ec3565b60405180910390f35b6102dc60048036038101906102d79190611a4e565b61081f565b6040516102eb93929190612126565b60405180910390f35b6102fc610b11565b6040516103099190611db1565b60405180910390f35b61032c6004803603810190610327919061219e565b610b3a565b6040516103399190611c0a565b60405180910390f35b61034a61108a565b6040516103579190611ea8565b60405180910390f35b61037a60048036038101906103759190611e5f565b611090565b60405161038b959493929190612212565b60405180910390f35b6103ae60048036038101906103a9919061226c565b611191565b6040516103bb9190611c0a565b60405180910390f35b6103de60048036038101906103d99190611e5f565b611417565b6040516103eb9190611ea8565b60405180910390f35b61040e60048036038101906104099190611bc2565b611445565b005b61042a60048036038101906104259190611bc2565b6114df565b005b610434611579565b6040516104419190611ea8565b60405180910390f35b610464600480360381019061045f9190611bc2565b61157f565b005b600260009054906101000a900473ffffffffffffffffffffffffffffffffffffffff1681565b610494611602565b8173ffffffffffffffffffffffffffffffffffffffff1663a9059cbb6104b8610b11565b836040518363ffffffff1660e01b81526004016104d6929190612301565b6020604051808303816000875af11580156104f5573d6000803e3d6000fd5b505050506040513d601f19601f82011682018060405250810190610519919061233f565b505050565b60606000806000806005878760405161053892919061239c565b90815260200160405180910390206040518060a0016040529081600082018054610561906123e4565b80601f016020809104026020016040519081016040528092919081815260200182805461058d906123e4565b80156105da5780601f106105af576101008083540402835291602001916105da565b820191906000526020600020905b8154815290600101906020018083116105bd57829003601f168201915b5050505050815260200160018201548152602001600282015481526020016003820160009054906101000a900473ffffffffffffffffffffffffffffffffffffffff1673ffffffffffffffffffffffffffffffffffffffff1673ffffffffffffffffffffffffffffffffffffffff1681526020016003820160149054906101000a900460ff1615151515815250509050806000015181602001518260400151836060015194509450945094505092959194509250565b610698611602565b8060038190555050565b600a6020528060005260406000206000915054906101000a900460ff1681565b60078280516020810182018051848252602083016020850120818352809550505050505081815481106106f457600080fd5b906000526020600020016000915091509054906101000a900473ffffffffffffffffffffffffffffffffffffffff1681565b600682805160208101820180518482526020830160208501208183528095505050505050602052806000526040600020600091509150508060000160009054906101000a900460ff16908060000160019054906101000a900460ff16908060010154905083565b610795611602565b61079f6000611680565b565b6009818051602081018201805184825260208301602085012081835280955050505050506000915090505481565b600080600884846040516107e492919061239c565b9081526020016040518091039020546009858560405161080592919061239c565b908152602001604051809103902054915091509250929050565b606080606060006007868660405161083892919061239c565b90815260200160405180910390208054905090508067ffffffffffffffff81111561086657610865611c2a565b5b6040519080825280602002602001820160405280156108945781602001602082028036833780820191505090505b5093508067ffffffffffffffff8111156108b1576108b0611c2a565b5b6040519080825280602002602001820160405280156108df5781602001602082028036833780820191505090505b5092508067ffffffffffffffff8111156108fc576108fb611c2a565b5b60405190808252806020026020018201604052801561092a5781602001602082028036833780820191505090505b50915060005b81811015610b085760006007888860405161094c92919061239c565b9081526020016040518091039020828154811061096c5761096b612415565b5b9060005260206000200160009054906101000a900473ffffffffffffffffffffffffffffffffffffffff169050808683815181106109ad576109ac612415565b5b602002602001019073ffffffffffffffffffffffffffffffffffffffff16908173ffffffffffffffffffffffffffffffffffffffff1681525050600688886040516109f992919061239c565b908152602001604051809103902060008273ffffffffffffffffffffffffffffffffffffffff1673ffffffffffffffffffffffffffffffffffffffff16815260200190815260200160002060000160019054906101000a900460ff16858381518110610a6857610a67612415565b5b60200260200101901515908115158152505060068888604051610a8c92919061239c565b908152602001604051809103902060008273ffffffffffffffffffffffffffffffffffffffff1673ffffffffffffffffffffffffffffffffffffffff16815260200190815260200160002060010154848381518110610aee57610aed612415565b5b602002602001018181525050508080600101915050610930565b50509250925092565b60008060009054906101000a900473ffffffffffffffffffffffffffffffffffffffff16905090565b6000610b44611744565b600060058686604051610b5892919061239c565b90815260200160405180910390206000018054610b74906123e4565b905011610bb6576040517f08c379a0000000000000000000000000000000000000000000000000000000008152600401610bad90612490565b60405180910390fd5b60068585604051610bc892919061239c565b908152602001604051809103902060003373ffffffffffffffffffffffffffffffffffffffff1673ffffffffffffffffffffffffffffffffffffffff16815260200190815260200160002060000160009054906101000a900460ff1615610c64576040517f08c379a0000000000000000000000000000000000000000000000000000000008152600401610c5b906124fc565b60405180910390fd5b600354821015610ca9576040517f08c379a0000000000000000000000000000000000000000000000000000000008152600401610ca090612568565b60405180910390fd5b81600260009054906101000a900473ffffffffffffffffffffffffffffffffffffffff1673ffffffffffffffffffffffffffffffffffffffff166370a08231336040518263ffffffff1660e01b8152600401610d059190611db1565b602060405180830381865afa158015610d22573d6000803e3d6000fd5b505050506040513d601f19601f82011682018060405250810190610d46919061259d565b1015610d87576040517f08c379a0000000000000000000000000000000000000000000000000000000008152600401610d7e90612616565b60405180910390fd5b600260009054906101000a900473ffffffffffffffffffffffffffffffffffffffff1673ffffffffffffffffffffffffffffffffffffffff166323b872dd3330856040518463ffffffff1660e01b8152600401610de693929190612636565b6020604051808303816000875af1158015610e05573d6000803e3d6000fd5b505050506040513d601f19601f82011682018060405250810190610e29919061233f565b610e68576040517f08c379a0000000000000000000000000000000000000000000000000000000008152600401610e5f906126b9565b60405180910390fd5b604051806060016040528060011515815260200184151581526020018381525060068686604051610e9a92919061239c565b908152602001604051809103902060003373ffffffffffffffffffffffffffffffffffffffff1673ffffffffffffffffffffffffffffffffffffffff16815260200190815260200160002060008201518160000160006101000a81548160ff02191690831515021790555060208201518160000160016101000a81548160ff0219169083151502179055506040820151816001015590505060078585604051610f4492919061239c565b9081526020016040518091039020339080600181540180825580915050600190039060005260206000200160009091909190916101000a81548173ffffffffffffffffffffffffffffffffffffffff021916908373ffffffffffffffffffffffffffffffffffffffff1602179055508215610ff5578160088686604051610fcc92919061239c565b90815260200160405180910390206000828254610fe99190612708565b9250508190555061102d565b816009868660405161100892919061239c565b908152602001604051809103902060008282546110259190612708565b925050819055505b7f8f939c0e8da82099bc9be68995da582362fa8d3032227846326c305b0f2d2e378585338686604051611064959493929190612769565b60405180910390a16110768585611793565b60019050611082611876565b949350505050565b60035481565b6005818051602081018201805184825260208301602085012081835280955050505050506000915090508060000180546110c9906123e4565b80601f01602080910402602001604051908101604052809291908181526020018280546110f5906123e4565b80156111425780601f1061111757610100808354040283529160200191611142565b820191906000526020600020905b81548152906001019060200180831161112557829003601f168201915b5050505050908060010154908060020154908060030160009054906101000a900473ffffffffffffffffffffffffffffffffffffffff16908060030160149054906101000a900460ff16905085565b6000600a60003373ffffffffffffffffffffffffffffffffffffffff1673ffffffffffffffffffffffffffffffffffffffff16815260200190815260200160002060009054906101000a900460ff1661121f576040517f08c379a000000000000000000000000000000000000000000000000000000000815260040161121690612803565b60405180910390fd5b60006005878760405161123392919061239c565b9081526020016040518091039020600001805461124f906123e4565b905014611291576040517f08c379a00000000000000000000000000000000000000000000000000000000081526004016112889061286f565b60405180910390fd5b6040518060a0016040528085858080601f016020809104026020016040519081016040528093929190818152602001838380828437600081840152601f19601f8201169050808301925050505050505081526020018381526020014281526020013373ffffffffffffffffffffffffffffffffffffffff168152602001600015158152506005878760405161132792919061239c565b9081526020016040518091039020600082015181600001908161134a9190612a31565b50602082015181600101556040820151816002015560608201518160030160006101000a81548173ffffffffffffffffffffffffffffffffffffffff021916908373ffffffffffffffffffffffffffffffffffffffff16021790555060808201518160030160146101000a81548160ff0219169083151502179055509050507fa417b53295b9d8116084ac17e9141153c48a5ac26b273547b6e71711a119f9d986868686863360405161140296959493929190612b03565b60405180910390a16001905095945050505050565b6008818051602081018201805184825260208301602085012081835280955050505050506000915090505481565b61144d611602565b6001600a60008373ffffffffffffffffffffffffffffffffffffffff1673ffffffffffffffffffffffffffffffffffffffff16815260200190815260200160002060006101000a81548160ff0219169083151502179055507fea5f6444a82c5a256b72b475714978ac87af927f8f6881498833df35cdc675d7816040516114d49190611db1565b60405180910390a150565b6114e7611602565b6000600a60008373ffffffffffffffffffffffffffffffffffffffff1673ffffffffffffffffffffffffffffffffffffffff16815260200190815260200160002060006101000a81548160ff0219169083151502179055507fd3e803f2dfdacd206b7d19aa46d847206386d84e3dc6b8de0926e54affa6fddc8160405161156e9190611db1565b60405180910390a150565b60045481565b611587611602565b600073ffffffffffffffffffffffffffffffffffffffff168173ffffffffffffffffffffffffffffffffffffffff16036115f6576040517f08c379a00000000000000000000000000000000000000000000000000000000081526004016115ed90612bcc565b60405180910390fd5b6115ff81611680565b50565b61160a61187f565b73ffffffffffffffffffffffffffffffffffffffff16611628610b11565b73ffffffffffffffffffffffffffffffffffffffff161461167e576040517f08c379a000000000000000000000000000000000000000000000000000000000815260040161167590612c38565b60405180910390fd5b565b60008060009054906101000a900473ffffffffffffffffffffffffffffffffffffffff169050816000806101000a81548173ffffffffffffffffffffffffffffffffffffffff021916908373ffffffffffffffffffffffffffffffffffffffff1602179055508173ffffffffffffffffffffffffffffffffffffffff168173ffffffffffffffffffffffffffffffffffffffff167f8be0079c531659141344cd1fd0a4f28419497f9722a3daafe3b4186f6b6457e060405160405180910390a35050565b600260015403611789576040517f08c379a000000000000000000000000000000000000000000000000000000000815260040161178090612ca4565b60405180910390fd5b6002600181905550565b6000600983836040516117a792919061239c565b908152602001604051809103902054600884846040516117c892919061239c565b9081526020016040518091039020546117e19190612708565b9050683635c9adc5dea000008110611871576004548160646008868660405161180b92919061239c565b9081526020016040518091039020546118249190612cc4565b61182e9190612d35565b106118705760016005848460405161184792919061239c565b908152602001604051809103902060030160146101000a81548160ff0219169083151502179055505b5b505050565b60018081905550565b600033905090565b600073ffffffffffffffffffffffffffffffffffffffff82169050919050565b6000819050919050565b60006118cc6118c76118c284611887565b6118a7565b611887565b9050919050565b60006118de826118b1565b9050919050565b60006118f0826118d3565b9050919050565b611900816118e5565b82525050565b600060208201905061191b60008301846118f7565b92915050565b6000604051905090565b600080fd5b600080fd5b600061194082611887565b9050919050565b61195081611935565b811461195b57600080fd5b50565b60008135905061196d81611947565b92915050565b6000819050919050565b61198681611973565b811461199157600080fd5b50565b6000813590506119a38161197d565b92915050565b600080604083850312156119c0576119bf61192b565b5b60006119ce8582860161195e565b92505060206119df85828601611994565b9150509250929050565b600080fd5b600080fd5b600080fd5b60008083601f840112611a0e57611a0d6119e9565b5b8235905067ffffffffffffffff811115611a2b57611a2a6119ee565b5b602083019150836001820283011115611a4757611a466119f3565b5b9250929050565b60008060208385031215611a6557611a6461192b565b5b600083013567ffffffffffffffff811115611a8357611a82611930565b5b611a8f858286016119f8565b92509250509250929050565b600081519050919050565b600082825260208201905092915050565b60005b83811015611ad5578082015181840152602081019050611aba565b60008484015250505050565b6000601f19601f8301169050919050565b6000611afd82611a9b565b611b078185611aa6565b9350611b17818560208601611ab7565b611b2081611ae1565b840191505092915050565b611b3481611973565b82525050565b611b4381611935565b82525050565b60006080820190508181036000830152611b638187611af2565b9050611b726020830186611b2b565b611b7f6040830185611b2b565b611b8c6060830184611b3a565b95945050505050565b600060208284031215611bab57611baa61192b565b5b6000611bb984828501611994565b91505092915050565b600060208284031215611bd857611bd761192b565b5b6000611be68482850161195e565b91505092915050565b60008115159050919050565b611c0481611bef565b82525050565b6000602082019050611c1f6000830184611bfb565b92915050565b600080fd5b7f4e487b7100000000000000000000000000000000000000000000000000000000600052604160045260246000fd5b611c6282611ae1565b810181811067ffffffffffffffff82111715611c8157611c80611c2a565b5b80604052505050565b6000611c94611921565b9050611ca08282611c59565b919050565b600067ffffffffffffffff821115611cc057611cbf611c2a565b5b611cc982611ae1565b9050602081019050919050565b82818337600083830152505050565b6000611cf8611cf384611ca5565b611c8a565b905082815260208101848484011115611d1457611d13611c25565b5b611d1f848285611cd6565b509392505050565b600082601f830112611d3c57611d3b6119e9565b5b8135611d4c848260208601611ce5565b91505092915050565b60008060408385031215611d6c57611d6b61192b565b5b600083013567ffffffffffffffff811115611d8a57611d89611930565b5b611d9685828601611d27565b9250506020611da785828601611994565b9150509250929050565b6000602082019050611dc66000830184611b3a565b92915050565b60008060408385031215611de357611de261192b565b5b600083013567ffffffffffffffff811115611e0157611e00611930565b5b611e0d85828601611d27565b9250506020611e1e8582860161195e565b9150509250929050565b6000606082019050611e3d6000830186611bfb565b611e4a6020830185611bfb565b611e576040830184611b2b565b949350505050565b600060208284031215611e7557611e7461192b565b5b600082013567ffffffffffffffff811115611e9357611e92611930565b5b611e9f84828501611d27565b91505092915050565b6000602082019050611ebd6000830184611b2b565b92915050565b6000604082019050611ed86000830185611b2b565b611ee56020830184611b2b565b9392505050565b600081519050919050565b600082825260208201905092915050565b6000819050602082019050919050565b611f2181611935565b82525050565b6000611f338383611f18565b60208301905092915050565b6000602082019050919050565b6000611f5782611eec565b611f618185611ef7565b9350611f6c83611f08565b8060005b83811015611f9d578151611f848882611f27565b9750611f8f83611f3f565b925050600181019050611f70565b5085935050505092915050565b600081519050919050565b600082825260208201905092915050565b6000819050602082019050919050565b611fdf81611bef565b82525050565b6000611ff18383611fd6565b60208301905092915050565b6000602082019050919050565b600061201582611faa565b61201f8185611fb5565b935061202a83611fc6565b8060005b8381101561205b5781516120428882611fe5565b975061204d83611ffd565b92505060018101905061202e565b5085935050505092915050565b600081519050919050565b600082825260208201905092915050565b6000819050602082019050919050565b61209d81611973565b82525050565b60006120af8383612094565b60208301905092915050565b6000602082019050919050565b60006120d382612068565b6120dd8185612073565b93506120e883612084565b8060005b8381101561211957815161210088826120a3565b975061210b836120bb565b9250506001810190506120ec565b5085935050505092915050565b600060608201905081810360008301526121408186611f4c565b90508181036020830152612154818561200a565b9050818103604083015261216881846120c8565b9050949350505050565b61217b81611bef565b811461218657600080fd5b50565b60008135905061219881612172565b92915050565b600080600080606085870312156121b8576121b761192b565b5b600085013567ffffffffffffffff8111156121d6576121d5611930565b5b6121e2878288016119f8565b945094505060206121f587828801612189565b925050604061220687828801611994565b91505092959194509250565b600060a082019050818103600083015261222c8188611af2565b905061223b6020830187611b2b565b6122486040830186611b2b565b6122556060830185611b3a565b6122626080830184611bfb565b9695505050505050565b6000806000806000606086880312156122885761228761192b565b5b600086013567ffffffffffffffff8111156122a6576122a5611930565b5b6122b2888289016119f8565b9550955050602086013567ffffffffffffffff8111156122d5576122d4611930565b5b6122e1888289016119f8565b935093505060406122f488828901611994565b9150509295509295909350565b60006040820190506123166000830185611b3a565b6123236020830184611b2b565b9392505050565b60008151905061233981612172565b92915050565b6000602082840312156123555761235461192b565b5b60006123638482850161232a565b91505092915050565b600081905092915050565b6000612383838561236c565b9350612390838584611cd6565b82840190509392505050565b60006123a9828486612377565b91508190509392505050565b7f4e487b7100000000000000000000000000000000000000000000000000000000600052602260045260246000fd5b600060028204905060018216806123fc57607f821691505b60208210810361240f5761240e6123b5565b5b50919050565b7f4e487b7100000000000000000000000000000000000000000000000000000000600052603260045260246000fd5b7f417564697420646f6573206e6f74206578697374000000000000000000000000600082015250565b600061247a601483611aa6565b915061248582612444565b602082019050919050565b600060208201905081810360008301526124a98161246d565b9050919050565b7f416c726561647920766f746564206f6e20746869732061756469740000000000600082015250565b60006124e6601b83611aa6565b91506124f1826124b0565b602082019050919050565b60006020820190508181036000830152612515816124d9565b9050919050565b7f5374616b6520746f6f206c6f7700000000000000000000000000000000000000600082015250565b6000612552600d83611aa6565b915061255d8261251c565b602082019050919050565b6000602082019050818103600083015261258181612545565b9050919050565b6000815190506125978161197d565b92915050565b6000602082840312156125b3576125b261192b565b5b60006125c184828501612588565b91505092915050565b7f496e73756666696369656e7420746f6b656e2062616c616e6365000000000000600082015250565b6000612600601a83611aa6565b915061260b826125ca565b602082019050919050565b6000602082019050818103600083015261262f816125f3565b9050919050565b600060608201905061264b6000830186611b3a565b6126586020830185611b3a565b6126656040830184611b2b565b949350505050565b7f546f6b656e207472616e73666572206661696c65640000000000000000000000600082015250565b60006126a3601583611aa6565b91506126ae8261266d565b602082019050919050565b600060208201905081810360008301526126d281612696565b9050919050565b7f4e487b7100000000000000000000000000000000000000000000000000000000600052601160045260246000fd5b600061271382611973565b915061271e83611973565b9250828201905080821115612736576127356126d9565b5b92915050565b60006127488385611aa6565b9350612755838584611cd6565b61275e83611ae1565b840190509392505050565b6000608082019050818103600083015261278481878961273c565b90506127936020830186611b3a565b6127a06040830185611bfb565b6127ad6060830184611b2b565b9695505050505050565b7f4e6f74206120726567697374657265642061756469746f720000000000000000600082015250565b60006127ed601883611aa6565b91506127f8826127b7565b602082019050919050565b6000602082019050818103600083015261281c816127e0565b9050919050565b7f417564697420494420616c726561647920657869737473000000000000000000600082015250565b6000612859601783611aa6565b915061286482612823565b602082019050919050565b600060208201905081810360008301526128888161284c565b9050919050565b60008190508160005260206000209050919050565b60006020601f8301049050919050565b600082821b905092915050565b6000600883026128f17fffffffffffffffffffffffffffffffffffffffffffffffffffffffffffffffff826128b4565b6128fb86836128b4565b95508019841693508086168417925050509392505050565b600061292e61292961292484611973565b6118a7565b611973565b9050919050565b6000819050919050565b61294883612913565b61295c61295482612935565b8484546128c1565b825550505050565b600090565b612971612964565b61297c81848461293f565b505050565b5b818110156129a057612995600082612969565b600181019050612982565b5050565b601f8211156129e5576129b68161288f565b6129bf846128a4565b810160208510156129ce578190505b6129e26129da856128a4565b830182612981565b50505b505050565b600082821c905092915050565b6000612a08600019846008026129ea565b1980831691505092915050565b6000612a2183836129f7565b9150826002028217905092915050565b612a3a82611a9b565b67ffffffffffffffff811115612a5357612a52611c2a565b5b612a5d82546123e4565b612a688282856129a4565b600060209050601f831160018114612a9b5760008415612a89578287015190505b612a938582612a15565b865550612afb565b601f198416612aa98661288f565b60005b82811015612ad157848901518255600182019150602085019450602081019050612aac565b86831015612aee5784890151612aea601f8916826129f7565b8355505b6001600288020188555050505b505050505050565b60006080820190508181036000830152612b1e81888a61273c565b90508181036020830152612b3381868861273c565b9050612b426040830185611b2b565b612b4f6060830184611b3a565b979650505050505050565b7f4f776e61626c653a206e6577206f776e657220697320746865207a65726f206160008201527f6464726573730000000000000000000000000000000000000000000000000000602082015250565b6000612bb6602683611aa6565b9150612bc182612b5a565b604082019050919050565b60006020820190508181036000830152612be581612ba9565b9050919050565b7f4f776e61626c653a2063616c6c6572206973206e6f7420746865206f776e6572600082015250565b6000612c22602083611aa6565b9150612c2d82612bec565b602082019050919050565b60006020820190508181036000830152612c5181612c15565b9050919050565b7f5265656e7472616e637947756172643a207265656e7472616e742063616c6c00600082015250565b6000612c8e601f83611aa6565b9150612c9982612c58565b602082019050919050565b60006020820190508181036000830152612cbd81612c81565b9050919050565b6000612ccf82611973565b9150612cda83611973565b9250828202612ce881611973565b91508282048414831517612cff57612cfe6126d9565b5b5092915050565b7f4e487b7100000000000000000000000000000000000000000000000000000000600052601260045260246000fd5b6000612d4082611973565b9150612d4b83611973565b925082612d5b57612d5a612d06565b5b82820490509291505056fea2646970667358221220d0d84c092aade22be22f9542316bce3e2e96ef9645bfb5c05e1ad41ea9588eca64736f6c634300081c0033",
  "linkReferences": {},
  "deployedLinkReferences": {}
}