{
  "_format": "hh-sol-artifact-1",
  "contractName": "ScepticSimple",
  "sourceName": "contracts/ScepticSimple.sol",
  "abi": [
    {
      "inputs": [
        {
          "internalType": "string",
          "name": "_name",
          "type": "string"
        }
      ],
      "stateMutability": "nonpayable",
      "type": "constructor"
    },
    {
      "inputs": [],
      "name": "owner",
      "outputs": [
        {
          "internalType": "address",
          "name": "",
          "type": "address"
        }
      ],
      "stateMutability": "view",
      "type": "function"
    },
    {
      "inputs": [],
      "name": "projectName",
      "outputs": [
        {
          "internalType": "string",
          "name": "",
          "type": "string"
        }
      ],
      "stateMutability": "view",
      "type": "function"
    },
    {
      "inputs": [
        {
          "internalType": "string",
          "name": "_newName",
          "type": "string"
        }
      ],
      "name": "updateName",
      "outputs": [],
      "stateMutability": "nonpayable",
      "type": "function"
    }
  ],
  "bytecode": "0x608060405234801561001057600080fd5b50604051610d68380380610d68833981810160405281019061003291906101fe565b80600090816100419190610468565b5033600160006101000a81548173ffffffffffffffffffffffffffffffffffffffff021916908373ffffffffffffffffffffffffffffffffffffffff1602179055505061053a565b6000604051905090565b600080fd5b600080fd5b600080fd5b600080fd5b6000601f19601f8301169050919050565b7f4e487b7100000000000000000000000000000000000000000000000000000000600052604160045260246000fd5b6100f0826100a7565b810181811067ffffffffffffffff8211171561010f5761010e6100b8565b5b80604052505050565b6000610122610089565b905061012e82826100e7565b919050565b600067ffffffffffffffff82111561014e5761014d6100b8565b5b610157826100a7565b9050602081019050919050565b60005b83811015610182578082015181840152602081019050610167565b60008484015250505050565b60006101a161019c84610133565b610118565b9050828152602081018484840111156101bd576101bc6100a2565b5b6101c8848285610164565b509392505050565b600082601f8301126101e5576101e461009d565b5b81516101f584826020860161018e565b91505092915050565b60006020828403121561021457610213610093565b5b600082015167ffffffffffffffff81111561023257610231610098565b5b61023e848285016101d0565b91505092915050565b600081519050919050565b7f4e487b7100000000000000000000000000000000000000000000000000000000600052602260045260246000fd5b6000600282049050600182168061029957607f821691505b6020821081036102ac576102ab610252565b5b50919050565b60008190508160005260206000209050919050565b60006020601f8301049050919050565b600082821b905092915050565b6000600883026103147fffffffffffffffffffffffffffffffffffffffffffffffffffffffffffffffff826102d7565b61031e86836102d7565b95508019841693508086168417925050509392505050565b6000819050919050565b6000819050919050565b600061036561036061035b84610336565b610340565b610336565b9050919050565b6000819050919050565b61037f8361034a565b61039361038b8261036c565b8484546102e4565b825550505050565b600090565b6103a861039b565b6103b3818484610376565b505050565b5b818110156103d7576103cc6000826103a0565b6001810190506103b9565b5050565b601f82111561041c576103ed816102b2565b6103f6846102c7565b81016020851015610405578190505b610419610411856102c7565b8301826103b8565b50505b505050565b600082821c905092915050565b600061043f60001984600802610421565b1980831691505092915050565b6000610458838361042e565b9150826002028217905092915050565b61047182610247565b67ffffffffffffffff81111561048a576104896100b8565b5b6104948254610281565b61049f8282856103db565b600060209050601f8311600181146104d257600084156104c0578287015190505b6104ca858261044c565b865550610532565b601f1984166104e0866102b2565b60005b82811015610508578489015182556001820191506020850194506020810190506104e3565b868310156105255784890151610521601f89168261042e565b8355505b6001600288020188555050505b505050505050565b61081f806105496000396000f3fe608060405234801561001057600080fd5b50600436106100415760003560e01c806384da92a7146100465780638da5cb5b146100625780639a33e30014610080575b600080fd5b610060600480360381019061005b919061034f565b61009e565b005b61006a610141565b60405161007791906103d9565b60405180910390f35b610088610167565b6040516100959190610473565b60405180910390f35b600160009054906101000a900473ffffffffffffffffffffffffffffffffffffffff1673ffffffffffffffffffffffffffffffffffffffff163373ffffffffffffffffffffffffffffffffffffffff161461012e576040517f08c379a0000000000000000000000000000000000000000000000000000000008152600401610125906104e1565b60405180910390fd5b806000908161013d9190610717565b5050565b600160009054906101000a900473ffffffffffffffffffffffffffffffffffffffff1681565b6000805461017490610530565b80601f01602080910402602001604051908101604052809291908181526020018280546101a090610530565b80156101ed5780601f106101c2576101008083540402835291602001916101ed565b820191906000526020600020905b8154815290600101906020018083116101d057829003601f168201915b505050505081565b6000604051905090565b600080fd5b600080fd5b600080fd5b600080fd5b6000601f19601f8301169050919050565b7f4e487b7100000000000000000000000000000000000000000000000000000000600052604160045260246000fd5b61025c82610213565b810181811067ffffffffffffffff8211171561027b5761027a610224565b5b80604052505050565b600061028e6101f5565b905061029a8282610253565b919050565b600067ffffffffffffffff8211156102ba576102b9610224565b5b6102c382610213565b9050602081019050919050565b82818337600083830152505050565b60006102f26102ed8461029f565b610284565b90508281526020810184848401111561030e5761030d61020e565b5b6103198482856102d0565b509392505050565b600082601f83011261033657610335610209565b5b81356103468482602086016102df565b91505092915050565b600060208284031215610365576103646101ff565b5b600082013567ffffffffffffffff81111561038357610382610204565b5b61038f84828501610321565b91505092915050565b600073ffffffffffffffffffffffffffffffffffffffff82169050919050565b60006103c382610398565b9050919050565b6103d3816103b8565b82525050565b60006020820190506103ee60008301846103ca565b92915050565b600081519050919050565b600082825260208201905092915050565b60005b8381101561042e578082015181840152602081019050610413565b60008484015250505050565b6000610445826103f4565b61044f81856103ff565b935061045f818560208601610410565b61046881610213565b840191505092915050565b6000602082019050818103600083015261048d818461043a565b905092915050565b7f4f6e6c79206f776e65722063616e207570646174650000000000000000000000600082015250565b60006104cb6015836103ff565b91506104d682610495565b602082019050919050565b600060208201905081810360008301526104fa816104be565b9050919050565b7f4e487b7100000000000000000000000000000000000000000000000000000000600052602260045260246000fd5b6000600282049050600182168061054857607f821691505b60208210810361055b5761055a610501565b5b50919050565b60008190508160005260206000209050919050565b60006020601f8301049050919050565b600082821b905092915050565b6000600883026105c37fffffffffffffffffffffffffffffffffffffffffffffffffffffffffffffffff82610586565b6105cd8683610586565b95508019841693508086168417925050509392505050565b6000819050919050565b6000819050919050565b600061061461060f61060a846105e5565b6105ef565b6105e5565b9050919050565b6000819050919050565b61062e836105f9565b61064261063a8261061b565b848454610593565b825550505050565b600090565b61065761064a565b610662818484610625565b505050565b5b818110156106865761067b60008261064f565b600181019050610668565b5050565b601f8211156106cb5761069c81610561565b6106a584610576565b810160208510156106b4578190505b6106c86106c085610576565b830182610667565b50505b505050565b600082821c905092915050565b60006106ee600019846008026106d0565b1980831691505092915050565b600061070783836106dd565b9150826002028217905092915050565b610720826103f4565b67ffffffffffffffff81111561073957610738610224565b5b6107438254610530565b61074e82828561068a565b600060209050601f831160018114610781576000841561076f578287015190505b61077985826106fb565b8655506107e1565b601f19841661078f86610561565b60005b828110156107b757848901518255600182019150602085019450602081019050610792565b868310156107d457848901516107d0601f8916826106dd565b8355505b6001600288020188555050505b50505050505056fea264697066735822122023e918526933d186e348c9f0b77c4d7ab5357b4a0e5baed5357a1bf03680871164736f6c634300081c0033",
  "linkReferences": {},
  "deployedLinkReferences": {}
}